00001LUIS LEONARDO MUMBACH         100101050000000
00002JESICA MARIANA CHAMORRO       100101015000000
00004ElL PEPE                      100101450000000
00005JUAN OSACAR CRISTALDO PEREYRA 220101008500000